:020000040800F2
:1000000018720020DD010008FB0A000895090008AD
:10001000F90A0008F1070008C71F000800000000E7
:100020000000000000000000000000004501000882
:10003000F307000800000000890100080D14000803
:10004000F7010008F7010008F7010008F7010008B0
:10005000F7010008F7010008F7010008F7010008A0
:10006000F7010008F7010008F7010008F701000890
:10007000F7010008F7010008F7010008F701000880
:10008000F7010008F7010008F7010008F701000870
:10009000F7010008F7010008F7010008F701000860
:1000A000F7010008F7010008F7010008F701000850
:1000B000F7010008ED1400086D150008F7010008AD
:1000C000F7010008F7010008F7010008F701000830
:1000D000F7010008151A0008951A0008011D00080C
:1000E000F7010008F7010008F7010008F701000810
:1000F000F7010008F7010008F7010008F701000800
:10010000F7010008F7010008F7010008F7010008EF
:1001100091190008F7010008F7010008F70100082D
:10012000F7010008F7010008F7010008F7010008CF
:10013000DFF80CD000F008FA00480047552B000803
:1001400018720020224B19680868B0E8F00F80F39D
:100150000988BFF36F8F4FF0000080F311884EF0D5
:100160000D0E70470000000006480068006880F32C
:10017000088862B661B6BFF34F8FBFF36F8F00DFA1
:1001800000BF00BF08ED00E0EFF30980BFF36F8F01
:100190000F4B1A6820E9F00F106008B54FF05000BF
:1001A00080F31188BFF34F8FBFF36F8F05F036FBDD
:1001B0004FF0000080F31188BDE808401968086816
:1001C000B0E8F00F80F30988BFF36F8F704700BF6E
:1001D0003C010020EFF3058070470000064880478F
:1001E00006480047FEE7FEE7FEE7FEE7FEE7FEE71C
:1001F000FEE7FEE7FEE7FEE71D14000831010008F8
:1002000040EA01039B0703D009E008C9121F08C098
:10021000042AFAD203E011F8013B00F8013B521E18
:10022000F9D27047D2B201E000F8012B491EFBD28F
:1002300070470022F6E710B513460A4604461946F1
:10024000FFF7F0FF204610BDF0B480EA0102D40FA2
:100250004200B2EB410F02D20246084611464A0064
:1002600042D0C30DDDB2C1F3C752AD1A202D35DA2D
:10027000C1F3160141F4000204B15242C5F1200657
:1002800002FA06F12A411044B3EBD05F23D0C4B187
:10029000012DA0EBC35009DCF0BC4FF0004202EA94
:1002A000C352DBB200F5000000F020B9400000F1BD
:1002B000807000EBC350A0F1807040EAD17049001B
:1002C00009E0490841EAC071A0EBC35000F5000005
:1002D000400800EBC350F0BC00F0FFB861420122BF
:1002E00002EB4101001BF6E7F0BC704781F00041D2
:1002F000AAE780F00040A7E780EA010210B502F00B
:100300000043400022D04A001FD0010E01EB1261D1
:10031000C0F35600C2F3560240F4000042F400025B
:10032000A0FB022000047F39140400D0401C50EAD6
:10033000124001D44000491EC2B20C0604EBD0109A
:10034000401C4008802A02D003E0002010BD20F0AD
:100350000100002900DA0020184310BD30B480EA03
:10036000010202F0004530F0004221F0004013D0BD
:1003700090B1C30DD40DC2F31601C0F31600E41AF8
:1003800041F4000140F400027D34914201D3641C29
:1003900000E04900002C02DA30BC002070474FF426
:1003A00000000023914201D3891A034340084FEA19
:1003B0004101F7D151B1914202D14FF0004105E026
:1003C00002D24FF0010101E06FF0010103EBC450D4
:1003D000284430BC00F081B8C10F80EAE0700844C6
:1003E000CA079623002100F081B896230022114607
:1003F00000F07CB800F0004220F00040C10DC0F3D6
:10040000160040F400007F2901DA00207047962989
:1004100003DCC1F19601C84001E096398840002A0A
:10042000F4D04042704720F00040C10DC0F31600E8
:1004300040F400007F2901DA00207047962903DC90
:10044000C1F19601C8407047963988407047000056
:10045000002801DBC0F10040002901DBC1F10041AF
:1004600081427047002801DBC0F10040002901DB18
:10047000C1F10041884270472DE9F05F0546002038
:1004800092469B4688460646814640241BE0284605
:1004900041464746224600F078F853465A46C01A6D
:1004A000914110D311461846224600F05FF82D1AEC
:1004B00067EB01084F4622460120002100F056F864
:1004C00017EB00094E41201EA4F10104DFDC484671
:1004D00031462A464346BDE8F09F0029A8BF704731
:1004E000401C490008BF20F00100704710B4B0FA6A
:1004F00080FC00FA0CF050EA010404BF10BC704705
:1005000049B1CCF1200421FA04F411FA0CF118BF1E
:10051000012121430843A3EB0C01CB1D4FEA0061ED
:100520004FEA102042BF002010BC704700EBC350C0
:1005300010440029A4BF10BC7047401C490008BFEC
:1005400020F0010010BC7047064C074D06E0E06843
:1005500040F0010394E8070098471034AC42F6D30A
:10056000FFF7EAFD2468000844680008202A04DB3D
:10057000203A00FA02F1002070479140C2F12003B6
:1005800020FA03F3194390407047202A04DB203AF5
:1005900021FA02F00021704721FA02F3D040C2F1A3
:1005A0002002914008431946704770B58C1810F826
:1005B000015B15F0070301D110F8013B2A1106D1A8
:1005C00010F8012B03E010F8016B01F8016B5B1EC2
:1005D000F9D12B0705D40023521E0DD401F8013B9D
:1005E000FAE710F8013BCB1A921C03E013F8015B09
:1005F00001F8015B521EF9D5A142D8D3002070BD8D
:1006000010B50121082000F0DBFA10BD70B5002400
:1006100000F08EFB00F094FB082000F037FD002571
:1006200013E000F07DFB00F0FFF8002680210B486E
:1006300000F0A2F900B1012646EA4400C4B200F07D
:1006400077FB00F0F1F8681CC5B2082DE9DB00F07B
:1006500077FB082000F01AFD204670BD000C014019
:1006600070B586B005460020059004900390029076
:10067000019000900024002600F06CF8502000F05B
:10068000B9F800BF09E040F2E45000F0FFFC30464A
:10069000711C8EB2642800DB05E000F04AF800F01F
:1006A00080008028EFD000BF00F088F9712000F0B2
:1006B00076F800F00FFBFFF7A9FF059000F07EFB36
:1006C000FFF7A4FF049000F079FBFFF79FFF039072
:1006D00000F074FBFFF79AFF029000F06FFBFFF74A
:1006E00095FF019000F06AFBFFF790FF009000F08B
:1006F00080FB00F077FD9DF81000204304029DF878
:100700000C00204304029DF80800044324092C60D7
:1007100000249DF80800204304029DF804002043B3
:1007200004029DF800000443C4F313046C6006B097
:1007300070BD10B500F042F9712000F030F800F003
:10074000C9FAFFF763FF044600F053FB00F04AFDCF
:10075000204610BD10B500F031F9702000F01FF8F0
:1007600000F0B8FAAC2000F01AF800F0B3FA332029
:1007700000F015F800F0AEFA002000F010F800F0DC
:10078000A9FA00F02FFD10BD10B51B2000F054F9A0
:100790001C2000F051F91E2000F04EF910BD2DE98B
:1007A000F041044625468027002613E000F0C0FAF9
:1007B00000F02CF807EA050010B100F0D3FA01E0D0
:1007C00000F0E6FA00F0ACFA00F020F86806050E3A
:1007D000701CC6B2082EE9DB00F0AAFA082000F06F
:1007E00055FC00F0ADFA082000F050FCBDE8F081A7
:1007F0007047704710B5044603E04FF47A7000F07C
:1008000045FC201EA4F10104F7D110BD00B5012064
:1008100000F01BF8012000F018F8012000F015F896
:10082000012000F012F800BD00B5012000F00DF825
:10083000012000F00AF8012000F007F8012000F084
:1008400004F8012000F001F800BD014604E000209A
:1008500000E0401C0228FCD30A1EA1F10101F6D1E0
:1008600070472DE9F04102460025002600200023B4
:100870000024002791F803C00CF00F0591F803C085
:100880000CF0100CBCF1000F03D091F802C04CEA40
:10089000050591F800C0BCF1000F31D014680020AC
:1008A0002BE04FF0010C0CFA00F3B1F800C00CEA99
:1008B00003069E4220D183004FF00F0C0CFA03F781
:1008C000BC4305FA03FC4CEA040491F803C0BCF1F4
:1008D000280F06D14FF0010C0CFA00FCC2F814C02E
:1008E0000AE091F803C0BCF1480F05D14FF0010CAC
:1008F0000CFA00FCC2F810C0401C0828D1D31460C8
:10090000B1F800C0BCF1FF0F34DD546800202EE0C8
:1009100000F1080C4FF0010808FA0CF3B1F800C020
:100920000CEA03069E4221D183004FF00F0C0CFA13
:1009300003F7BC4305FA03FC4CEA040491F803C036
:10094000BCF1280F05D100F1080C08FA0CF8C2F828
:10095000148091F803C0BCF1480F07D100F1080CD6
:100960004FF0010808FA0CF8C2F81080401C082863
:10097000CED35460BDE8F0810246002093680B405E
:100980000BB1012000E00020704741617047016118
:100990007047000002E002A001F016FBFBE7000038
:1009A000486172644661756C745F48616E646C6521
:1009B00072206572726F72210D0A000010B500F08E
:1009C000D1F9082000F062FB00F0AAF9082000F03D
:1009D0005DFB00F0DDF9082000F058FB00F0A8F9FD
:1009E000082000F053FB10BD08B5FFF709FE1420E6
:1009F0008DF803008020ADF8000003208DF8020080
:100A000069460C48FFF72DFF80210A48FFF7BFFF1A
:100A100014208DF803004020ADF8000003208DF86D
:100A2000020069460348FFF71CFF40210148FFF719
:100A3000AEFF08BD000C014070B50446FFF7BEFFD5
:100A40007020FFF7ACFE00F045F92046FFF7A7FE47
:100A500000F040F90020FFF7A2FE00F03BF9002073
:100A6000FFF79DFE00F036F900F0BCFB0520FFF714
:100A7000C1FEFFF7A3FF7120FFF791FE00F02AF9F6
:100A800000F09CF9FFF7C2FD054600F097F9FFF76B
:100A9000BDFD064600F0ADF900F0A4FB0A20FFF70B
:100AA000A9FEFFF78BFF7020FFF779FE00F012F927
:100AB00044F0B000FFF773FE00F00CF92846FFF792
:100AC0006EFE00F007F93046FFF769FE00F002F90C
:100AD00000F088FB0025002670BD000010B5C02086
:100AE00004490870002048700221024800F01EFFEF
:100AF00010BD0000A01900207047704770B500219C
:100B000000230F22C47804B3154C246804F4E06475
:100B1000C4F5E064210AC1F10403CA40447804FA30
:100B200003F184781440214309010E4C0678A15545
:100B3000047804F01F050124AC4005786D11AD0068
:100B400005F1E025C5F8004109E0047804F01F052F
:100B50000124AC40044D0678761145F8264070BD5E
:100B60000CED00E000E400E080E100E00249014318
:100B7000024A1160704700000000FA050CED00E029
:100B800029B1064AD2690243044BDA6104E0034A00
:100B9000D2698243014BDA617047000000100240C5
:100BA00029B1064A12690243044B1A6104E0034A60
:100BB00012698243014B1A61704700000010024025
:100BC00029B1064A92690243044B9A6104E0034A40
:100BD00092698243014B9A61704700000010024005
:100BE00029B1064AD2680243044BDA6004E0034AA2
:100BF000D2688243014BDA60704700000010024067
:100C000030B500210022002400232D4D6D6805F031
:100C10000C0121B1042905D0082923D105E0294D73
:100C2000056022E0274D05601FE0254D6D6805F445
:100C30007012234D6D6805F48034022505EB924255
:100C40001CB9214D554305600BE01D4D6D6805F441
:100C500000351DB11C4D5543056002E0194D55434B
:100C6000056002E0174D056000BF00BF144D6D68C0
:100C700005F0F0010909154D6B5C0568DD40456024
:100C80000F4D6D6805F4E061090A104D6B5C456815
:100C9000DD4085600A4D6D6805F46051C90A0B4D51
:100CA0006B5C4568DD40C560054D6D6805F44041ED
:100CB000890B074D6B5CC568B5FBF3F5056130BD6D
:100CC0000010024000127A0000093D0028010020B7
:100CD0003801002010B5002400F02AF800F030F8A8
:100CE000082000F0D3F900F01BF8082000F0CEF93E
:100CF00001E0601C84B280210848FFF73DFE08B186
:100D0000642CF6DB642C01D1002010BD00F010F83B
:100D1000082000F0BBF90120F7E70000000C0140BB
:100D200010B540210148FFF732FE10BD000C014014
:100D300010B540210148FFF728FE10BD000C01400E
:100D400008B504208DF803008020ADF800000320D2
:100D50008DF8020069460248FFF783FD08BD0000D8
:100D6000000C014008B514208DF803008020ADF878
:100D7000000003208DF8020069460448FFF771FD6A
:100D800080210248FFF703FE08BD0000000C01406F
:100D900008B514208DF803008020ADF80000032072
:100DA0008DF8020069460448FFF75BFD8021024888
:100DB000FFF7EBFD08BD0000000C014010B5FFF788
:100DC000B7FF082000F062F9FFF7E2FF082000F00B
:100DD0005DF9FFF7A5FF082000F058F9FFF7A8FF1D
:100DE000082000F053F9FFF7ABFF082000F04EF9A0
:100DF00010BD10B5FFF79CFF082000F047F9FFF782
:100E0000B1FF082000F042F9FFF78AFF082000F048
:100E10003DF9FFF78DFF082000F038F9FFF7B8FF24
:100E2000082000F033F910BD2DE9F0478AB00546DF
:100E30000C46164600274FF0050881208DF820004B
:100E40008DF82100772D08D143208DF82200F0B2D3
:100E50008DF8240030128DF82500722D07D1522014
:100E60008DF8220000208DF824008DF825008DF8E3
:100E70002340722D04D1522000EB0420401C87B285
:100E8000772D05D1432000EB04203044401C87B26D
:100E900038128DF82700F8B28DF826008BE001207B
:100EA0004949086000204949086014214848FFF773
:100EB000C0F90322092108A800F0F3F800204549F1
:100EC000C1F89C010023C82269464348006804F029
:100ED00009FE012862D1642001F0F4FA3C4801784F
:100EE000407801EB00203A49897801443848C078BD
:100EF00001EB00203649097901443548407901EB7E
:100F000000203349897901443148C07901EB002040
:100F1000401C1FFA80F92E48017A407A01EB00202C
:100F20001FFA80FACA4532D129480178407801EB8E
:100F300000200A2190FBF1F02849086024488178BC
:100F4000C07801EB00200A2190FBF1F024490860F1
:100F50001F480079234908601D48407922490860EC
:100F60001B488179C07901EB0020204908601B48AB
:100F700001680F311EA001F027F800201349086016
:100F8000642001F09FFA01200AB0BDE8F0874B46CB
:100F9000524621461AA001F017F804E022462946DD
:100FA00022A001F011F8002008490860A8F101080A
:100FB000642001F087FAB8F1000F7FF470AF25A02C
:100FC00001F002F80020DFE79C0121429800002098
:100FD000D00100200000214230000020F400002059
:100FE000F80000200C01002000010020100100206A
:100FF00077656E64752E76616C3D2564FFFFFF009A
:101000002530327820435243D0A3D1E9CAA7B0DCBF
:101010002C6D794352433A25782C6D6F6462757359
:101020004352433A25780D0A00000000CEC2BFD8D3
:10103000C6F720256320202530327820B7B5BBD8ED
:10104000CAFDBEDDB3ACCAB12A2A2A2A2A2A0D0A51
:10105000000000000D0A0D0AD1CFD6D8B9CAD5CFED
:10106000A3BACEC2BFD8C6F7C1ACBDD3D2ECB3A32E
:101070002D2D2D2D2D2D2D2D2D2D2D2D2D2D2D2DA0
:101080002D2D2D2D2D0D0A0D0A00000010B5044642
:10109000A41E03E00120FFF7D8FB641E002CF9D149
:1010A00010BD2DE9F04105460E461746002404E028
:1010B000285D394600F006F8641CB442F8DBBDE850
:1010C000F081000070B505460C46012C04D129467C
:1010D000084800F074FF05E0032C03D129460648B8
:1010E00000F06DFF00BF8021034800F09BFE002848
:1010F000F9D070BD003801400048004010B500F044
:1011000001F810BD0CB50020019000903348006834
:1011100040F480303149086000BF3048006800F476
:10112000003000900198401C0190009818B9019877
:10113000B0F5A06FF1D12948006800F4003010B17B
:101140000120009001E0002000900098012843D188
:101150002348006840F010002149086008460068F4
:1011600020F0030008600846006840F002000860B4
:101170001A4840681949486008464068486008466F
:10118000406840F4806048600846406820F47C1065
:1011900048600846406840F4E81048600846006827
:1011A00040F08070086000BF0C48006800F00070DC
:1011B0000028F9D00948406820F00300074948603A
:1011C0000846406840F00200486000BF034840689D
:1011D00000F00C000828F9D10CBD000000100240FE
:1011E0000020024010B5FFF7D3FD0820FFF74EFFA7
:1011F000FFF796FD0820FFF749FFFFF7B3FD082032
:10120000FFF744FF10BD000008B501210420FFF7DF
:10121000D7FC01210820FFF7D3FC01211020FFF7A4
:10122000CFFC8020ADF8000010208DF803000320D3
:101230008DF8020069466848FFF713FB8021664875
:10124000FFF7A3FB4FF48070ADF8000010208DF87D
:10125000030003208DF8020069465F48FFF701FB99
:101260004FF480715C48FFF792FB0120ADF800005D
:1012700028208DF8030003208DF8020069465748A6
:10128000FFF7EFFA01215548FFF77FFB0220ADF889
:10129000000028208DF8030003208DF80200694625
:1012A0004E48FFF7DEFA02214C48FFF76EFB4FF481
:1012B0008050ADF8000010208DF8030003208DF859
:1012C000020069464548FFF7CCFA4FF48051434885
:1012D000FFF75DFB4FF40050ADF8000010208DF8D3
:1012E000030003208DF8020069463C48FFF7B9FA75
:1012F0004FF400513948FFF74AFB4FF48040ADF8F6
:10130000000010208DF8030003208DF802006946CC
:101310003248FFF7A6FA4FF480413048FFF737FB19
:101320004FF40040ADF8000010208DF803000320BA
:101330008DF8020069462948FFF793FA4FF40041FF
:101340002648FFF724FB4FF40050ADF800001020B2
:101350008DF8030003208DF8020069462048FFF74E
:1013600080FA4FF400511E48FFF70FFB1020ADF834
:1013700000008DF8030003208DF80200694617482D
:10138000FFF76FFA10211548FFF7FFFA2020ADF89C
:10139000000010208DF8030003208DF8020069463C
:1013A0000E48FFF75EFA20210C48FFF7EEFA4FF4E3
:1013B0008070ADF8000010208DF8030003208DF838
:1013C000020069460548FFF74CFA4FF48071034864
:1013D000FFF7DBFA08BD000000080140000C0140E7
:1013E00000100140042808D14FF0E021096941F0C4
:1013F00004014FF0E022116107E04FF0E02109699C
:1014000021F004014FF0E0221161704710B504F0A3
:101410008FFE012801D004F011FB10BD10B5134858
:10142000006840F001001149086008464068104912
:1014300008400E494860084600680E4908400B49BC
:1014400008600846006820F480200860084640686C
:1014500020F4FE0048604FF41F008860FFF74EFE46
:101460004FF000600449086010BD00000010024009
:101470000000FFF8FFFFF6FE08ED00E01FB50121B8
:101480000220FFF77DFB184800F0CCF844F61F60FF
:10149000ADF8080041F61F40ADF804000020ADF89B
:1014A0000600ADF80A0001A90F4800F0CBF90121B0
:1014B0000D4800F0A7F8012211460B4800F0B7F9DB
:1014C0000121094800F0A1F81D208DF80000062038
:1014D0008DF8010000208DF8020001208DF8030036
:1014E0006846FFF70BFB1FBD0004004010B501214B
:1014F000194800F08BF970B318480078062820D2FC
:10150000DFE800F0030611121316FFF7E7FA18E000
:10151000FFF7B4FF124801681248006804F00CFAA3
:10152000FFF7DCFA0DE000BF00BFFFF7D7FA08E0D5
:101530000D48006805F018F80021074800F065F82C
:1015400000BF00BF05480078401C04490870012115
:10155000014800F057F810BD00040040E0000020F2
:10156000E0670008240000205800002010B5012189
:101570001D4800F04BF9002834D01C481C49026873
:101580001C480068801CFEF73BFE18480088000AD3
:1015900018490968087015480078164909684870A4
:1015A0001448006800F59670124908600846006803
:1015B00011490968884202D110480E49086000208C
:1015C0000A49086000210E4800F03AF90021064857
:1015D00000F01BF80021044800F032F90121024814
:1015E00000F010F810BD0000000800409C00002032
:1015F00020020020A0000020A80000200C060020EF
:1016000000040040CA430282704721B1028842F0C0
:101610000102028004E002884FF6FE731A40028045
:101620007047000010B504466848844208D1012183
:10163000C014FFF7D5FA0021E014FFF7D1FAC4E097
:10164000B4F1804F08D101210846FFF7A9FA002123
:101650000120FFF7A5FAB8E05D48844208D10121D6
:101660000220FFF79DFA00210220FFF799FAACE073
:101670005848844208D101210420FFF791FA002143
:101680000420FFF78DFAA0E05348844208D10121DD
:101690000820FFF785FA00210820FFF781FA94E07F
:1016A0004E48844208D101211020FFF779FA002129
:1016B0001020FFF775FA88E04948844208D10121DB
:1016C0002020FFF76DFA00212020FFF769FA7CE067
:1016D0004448844208D101214014FFF781FA0021D7
:1016E0006014FFF77DFA70E03F48844209D1012180
:1016F000C804FFF775FA00214FF40020FFF770FAD5
:1017000063E03A48844209D101210805FFF768FAED
:1017100000214FF48010FFF763FA56E0344884420A
:1017200009D101214805FFF75BFA00214FF40010B1
:10173000FFF756FA49E02F48844208D101214020A2
:10174000FFF72EFA00214020FFF72AFA3DE02A4851
:10175000844208D101218020FFF722FA0021802055
:10176000FFF71EFA31E02548844208D10121801597
:10177000FFF716FA0021A015FFF712FA25E020481E
:10178000844209D101210804FFF72AFA00214FF40D
:101790008030FFF725FA18E01A48844209D1012168
:1017A0004804FFF71DFA00214FF40030FFF718FA44
:1017B0000BE01548844208D101218804FFF710FA94
:1017C00000214FF48020FFF70BFA10BD002C0140E0
:1017D0000004004000080040000C004000100040E1
:1017E0000014004000340140004C01400050014012
:1017F0000054014000180040001C00400020004040
:1018000000400140004401400048014030B502461C
:10181000002000230024158A05EA0103958905EAC2
:10182000010413B10CB1012000E0002030BD1AB159
:1018300083890B43838102E083898B4383817047D3
:1018400081847047002202881D4B98420ED01D4BA8
:1018500098420BD0B0F1804F08D01B4B984205D076
:101860001A4B984202D01A4B984204D14FF68F730C
:101870001A404B881A43174B984207D0164B984290
:1018800004D04FF6FF431A40CB881A4302808B885E
:1018900083850B8803850A4B98420BD0094B9842ED
:1018A00008D00E4B984205D00D4B984202D00D4BFC
:1018B000984201D10B7A038601238382704700008E
:1018C000002C0140003401400004004000080040AA
:1018D000000C004000100040001400400040014097
:1018E000004401400048014010B506220B2177203A
:1018F000FFF79AFA4FF4FA722A217720FFF794FA49
:1019000001221B217720FFF78FFA02A000F05CFB79
:1019100010BD0000CEC2BFD8C6F7B2CECAFDB3F527
:10192000CABCBBAFB3C9B9A60D0A000070B5054665
:101930000C462246294613480068801CFEF760FCCE
:101940002046E11704EB1161090A0E4A1268117072
:10195000E11704EB11610912A4EB0121094A126895
:1019600051700848006800F59670064908600846FE
:10197000006805490968884202D1044801490860A5
:1019800070BD0000AC000020B4000020E80B002077
:1019900010B540F225511A4800F051FA78B31948B1
:1019A000006803F0E4FF00F0010080B91448001D56
:1019B000008820B31248001D00881349134A12689A
:1019C000885412480068401C1049086017E00C4811
:1019D000001D00880C490D4A126888540B480068A5
:1019E00020B901210A48FFF710FE03E00021084852
:1019F000FFF726FF05480068401C0449086010BD39
:101A0000004C004024000020200200209C00002008
:101A10000008004000B5A3B040F22551164800F080
:101A20000EFAC8B11448001D0088C0B2134A1268EB
:101A30000DF802009DF80000242808D000200F496E
:101A400008609DF800100EA000F0BEFA04E00B48FC
:101A50000068401C0949086008480068401E1DF8DD
:101A60000000FF2806D101230022694608480068CB
:101A700004F056FA23B000BD003801406C0000208D
:101A8000B6AAC6FACAFDBEDDA3BA25327820200068
:101A90002C0000202DE9F04108218C4800F0C2F90B
:101AA00030B18A4800F086FA0821884800F056F9DB
:101AB00040F22551854800F0C2F900287ED08348C5
:101AC00000F078FAC4B282488249097844548148C7
:101AD0000078401C7F4908707F48007878B97C48BE
:101AE0000078AA280BD07A480078552807D0784883
:101AF000007840F00F00FF2801D0002008707548E2
:101B00000078022822D172480078AA2803D1032045
:101B1000714908701AE06E480078552807D16C4862
:101B200040785A2803D101206B4908700EE06848BC
:101B3000007840F00F00FF2803D1022066490870AA
:101B400004E0002063490870634908706248007827
:101B5000012864D15F480078182860D15C488078FB
:101B600000045B49C97840EA0120594909790843D2
:101B70005A4908605648407900045549897940EA35
:101B800001205349C9790843554908605048007AF3
:101B900000044F49497A40EA01204D49897A0843B7
:101BA000504908604A48C07A00044949097B40EA24
:101BB00001204749497B08434B4900E083E0086026
:101BC00047480068FEF711FC064644480068FEF7E7
:101BD0000CFC07463146FEF7C1FB05464348016849
:101BE0002846FEF789FB424908603F480068FEF737
:101BF000FCFB06463B480068FEF7F7FB074631460C
:101C0000FEF7ACFB05463B4801682846FEF774FB2F
:101C10003949086000202F4908702F4908702E4864
:101C20000078022842D12B48007818283ED133484A
:101C30002F4908602648007840F0FB00FF282DD08F
:101C40002348007A00042249497A40EA01202049C9
:101C5000897A0843234908601D48C07A00041C495A
:101C6000097B40EA01201A49497B08431E49086064
:101C700008460068FEF7B9FB06461A480068FEF7FA
:101C8000B4FB07463146FEF769FB05461948016873
:101C90002846FEF731FB1849086002E0002016498B
:101CA000086000200B4908700B4908700A4800784A
:101CB000032808D107480078182804D100200549D6
:101CC000087005490870BDE8F0810000004400403C
:101CD000B001002074000020750000207800002072
:101CE000800000207C000020840000209000002064
:101CF00088000020940000208C0000200000614338
:101D000010B540F22551114800F099F858B10F482C
:101D1000001D00880E490F4A126888540D4800685B
:101D2000401C0C4908600B480068092806D10023B4
:101D30001A4607490848006804F0F2F805480068A8
:101D40000A2802D900200349086010BD004800405D
:101D5000D0010020980000203000002001F4007223
:101D6000B2F5007F00D100BFCA430280704721B1A5
:101D7000828942F40052828104E082894DF6FF7329
:101D80001A4082817047000010B504462048844202
:101D900009D101218803FEF723FF00214FF4804081
:101DA000FEF71EFF32E01B48844209D1012148049E
:101DB000FEF7F6FE00214FF40030FEF7F1FE25E0BD
:101DC0001548844209D101218804FEF7E9FE00216B
:101DD0004FF48020FEF7E4FE18E01048844209D159
:101DE0000121C804FEF7DCFE00214FF40020FEF7BD
:101DF000D7FE0BE00A48844208D101210805FEF70E
:101E0000CFFE00214FF48010FEF7CAFE10BD000087
:101E1000003801400044004000480040004C0040B1
:101E20000050004002460020B1F5007F00D100BF05
:101E300013880B400BB1012000E00020704770B503
:101E40000246002400230025002040F66A16B14215
:101E500000D100BFC1F3421501F01F03012606FAAD
:101E600003F3012D02D19689334006E0022D02D101
:101E7000168A334001E0968A33400C12012606FA96
:101E800004F41688344013B10CB1012000E00020A6
:101E900070BDF0B50346002400260025002040F662
:101EA0006A17B94200D100BF1846C1F3421401F0CD
:101EB0001F06012707FA06F5012C01D10C3004E0BA
:101EC000022C01D1103000E014301AB107682F4302
:101ED000076002E00768AF430760F0BD2DE9F047F7
:101EE00086B005460E460024A24600BFA146002744
:101EF000B08900B100BF2F462C8A4CF6FF70044019
:101F0000F08804432C82AC894EF6F3100440B0886C
:101F100031890843718908430443AC81AC8A4FF688
:101F2000FF400440B0890443AC8201A8FEF768FE7C
:101F30001F48874202D1DDF810A001E0DDF80CA0B7
:101F4000A88900F4004040B10AEBCA0000EB0A1077
:101F500031684900B0FBF1F807E00AEBCA0000EB7A
:101F60000A1031688900B0FBF1F86420B8FBF0F08A
:101F700004012009642101FB1089A88900F40040B4
:101F800040B1322000EBC900B0FBF1F000F00700D7
:101F9000044308E0322000EB09106421B0FBF1F0AB
:101FA00000F00F0004432C8106B0BDE8F08700006C
:101FB0000038014001468888C0F308007047C1F32B
:101FC00008028280704770470FB4054B10B503A913
:101FD000044A029800F018F810BC5DF814FB0000E9
:101FE000752600087000002002E008C8121F08C112
:101FF000002AFAD170477047002001E001C1121F8A
:10200000002AFBD1704700002DE9FF4F8DB00F462D
:102010000546002606E025280BD0DDE90F12904783
:102020006D1C761C28780028F5D111B03046BDE82B
:10203000F08F0024A246A1460122EC4900E00443AF
:1020400015F8013F203B02FA03F00842F7D1287847
:102050002A2810D06FF02F022878A0F1300109292A
:1020600014D80AEB8A0102EB410144F0020400EBB0
:10207000010A6D1CF0E701CF5FEA000A03D544F4C2
:102080000054CAF1000A44F002046D1C28782E287E
:1020900017D115F8010F44F004042A280ED06FF070
:1020A0002F022878A0F1300109290AD809EB89010B
:1020B00002EB410100EB01096D1CF2E757F8049BAC
:1020C0006D1C28786C280FD006DC4C2817D06828A7
:1020D0000DD06A2814D104E0742810D07A280FD1CA
:1020E0000DE044F400140AE044F4801401E044F4E8
:1020F00040146978814202D104F580146D1C6D1C76
:102100002A786E2A1FD00CDC632A31D004DC002A26
:102110008BD0582A11D1A3E0642A68D0692A0CD147
:1021200065E0732A2ED004DC6F2A73D0702A04D1A4
:102130009BE0752A6FD0782A6ED01046DDE90F1229
:102140009047761C50E1C4F30250022806D00328C1
:1021500009D0042801CF09D0066045E101CFF1176D
:10216000C0E9006140E101CF06803DE106703BE13E
:1021700017F8040B8DF8000000208DF80100EB46E5
:10218000012003E057F804BB4FF0FF3061074FF028
:10219000000102D40DE008F10101884649450FDA3B
:1021A0008045F8DB1BF808100029F4D108E008F19D
:1021B000010188468142FADB1BF808100029F6D19C
:1021C000DDE90F23AAEB08008146214600F036F92D
:1021D000304400EB080604E0DDE90F121BF8010BA8
:1021E0009047B8F10108F7D221464846F7E00A21A6
:1021F000C4F302534FF0000B0891022B04D001CF1F
:10220000C117032B09D00AE0FF1D27F00707F7E8E5
:10221000020108E032E01FE020E000B2C117042B09
:1022200001D140B2C117031E71F1000307DA4FF06C
:10223000000CD0EB0C006CEB01012D2302E0230518
:1022400004D52B238DF82430012303E0E30701D0CC
:102250002023F7E7984658E00A2110E010210EE00D
:1022600010204FF0000B08900CE010214FF0000BF5
:1022700044F004044FF00809089103E008214FF0EE
:10228000000B0891C4F30253022B04D001CF0021AC
:10229000032B06D006E0FF1D27F00707F7E8020131
:1022A00003E080B2042B00D1C0B24FF00008230736
:1022B0002BD5702A07D0DDF820C08CF0100C5CEA1A
:1022C0000B0C05D00EE040238DF82430012308E0EC
:1022D00050EA010306D030238DF824308DF82520F4
:1022E00002239846DDF820C08CF0080C5CEA0B0C49
:1022F0000BD150EA010301D1630706D530238DF8D5
:1023000024304FF00108A9F10109582A04D038A25D
:102310000B9208AA0A920BE03AA2F9E75B46089AE8
:10232000FEF7AAF80B9B9B5C0A9A521E0A92137046
:1023300050EA0102F2D10A98ADEB000000F1200B47
:10234000600702D524F4803401E04FF00109D9453B
:1023500002DDA9EB0B0000E0002000EB0B01414483
:102360000890AAEB010AE00306D4DDE90F23214619
:10237000504600F063F806444FF0000908E009A950
:1023800011F80900DDE90F12904709F10109761CE7
:10239000C145F4DBE0030CD5DDE90F2321465046AF
:1023A00000F04CF8064404E0DDE90F1230209047BD
:1023B000761C0899481E08900029F5DC08E00A9868
:1023C0000A990078491C0A91DDE90F129047761CA2
:1023D000BBF10001ABF1010BF1DC21465046DDE918
:1023E0000F2300F019F806446D1C1BE609280100B4
:1023F000303132333435363738396162636465667B
:10240000000000003031323334353637383941423C
:1024100043444546000000002DE9F04104460025F4
:102420001E461746880404D405E039462020B047EC
:102430006D1C641EF9D52846BDE8F0812DE9F041F8
:10244000044600251E469046C80301D5302700E00B
:102450002027880404D505E041463846B0476D1C66
:10246000641EF9D52846BDE8F081000010B50420AF
:10247000FEF7B8FF0F4800680F49B0FBF1F00F49B5
:1024800008700C4800684FF47A71B0FBF1F4012039
:102490000B4908804FF0E020006940F002004FF047
:1024A000E021086108464461006940F001000861CC
:1024B00010BD00001401002040420F006800002001
:1024C0006A00002070B5044603F032FE012810D0E7
:1024D0000B480088844206D309480088B4FBF0F515
:1024E000284602F05DFE06480088B4FBF0F100FBD0
:1024F00011444FF47A7104FB01F000F003F870BD51
:102500006A00002070B5034600224FF0E02675698E
:102510000D4E367803FB06F44FF0E026B16910E06B
:102520004FF0E026B06988420BD0884202D20E1AE2
:10253000324402E02E1A0E4432440146A24200D335
:1025400000E0EDE700BF70BD6800002070B50446F4
:102550004FF4967604EB8400450004B935462448D0
:102560000068B0F5966F03DD22A0FFF72DFD70BD6A
:1025700002212548FEF700FA01282ED00020234929
:10258000086001202249C1F8B4011AE06420FFF775
:1025900099FF6D1E002D03DC1EA0FFF715FD14E052
:1025A00002211948FEF7E8F9012803D11FA0FFF71F
:1025B0000BFD0AE02248007818B922A0FFF704FDBD
:1025C00003E0301EA6F10106E0D100BF002E04DCBE
:1025D00023A0FFF7F9FC02F0F9F901200B4908608C
:1025E0000B49C1F8B40100201549087000BFBEE7CF
:1025F000F4000020706167652077656E647567750B
:102600006F67616FFFFFFF00000C0140B081214246
:1026100000802142D4CBD0D0B5BDB4EFC9E8B6A874
:10262000CAB1BCE4CDCBB3F60D0A0000D4CBD0D0F8
:10263000B5BDCFC2CFDECEBBCDCBB3F60000000020
:1026400038000020BDD3CAD5B5BDCDA3D6B9D6B804
:10265000C1EEA3BACAD6B6AFCDCBB3F60D0A000011
:10266000C2AFC3C5CFC2BDB5B3ACCAB1B9CAD5CF6D
:102670000D0A000000BF054A128802F04002002A3D
:10268000F9D0C2B2014B1B1D1A80704700380140BF
:1026900010B51648FDF7E4FF144800684FF47A714E
:1026A0004843000D1249086010484068C82148435B
:1026B00000EB8000C0F355204FF4FA71C1EB90207D
:1026C0000C4908600A4800680A2190FBF1F4214691
:1026D00009A0FFF779FC074800680A2190FBF1F494
:1026E00021460BA0FFF770FC10BD0000E4000020A5
:1026F000EC000020F00000206875616E6A696E676A
:1027000073686964752E76616C3D2564FFFFFF0078
:102710006875616E6A696E6777656E64752E76613D
:102720006C3D2564FFFFFF0010B509480068FDF708
:102730007AFEC4B2214607A0FFF746FC0B480068AA
:10274000FDF771FEC4B2214609A0FFF73DFC10BDA4
:102750008800002073686977616E676469616E79CB
:10276000612E76616C3D2564FFFFFF008C00002028
:10277000676F6E677A756F6469616E6C69752E76C6
:10278000616C3D2564FFFFFF000000002DE9FF4F55
:1027900085B0064615461F46DDF848800024A14650
:1027A0004046FDF722FE834629463846FDF79EFD4A
:1027B00059460190FDF7D2FD02904046FDF715FE07
:1027C000039000221B217720FEF72EFB4FF47A7036
:1027D000FFF778FE83492846FDF78EFD0190FDF74F
:1027E00022FE1FFA80FB5A4650217720FEF71CFB81
:1027F00003F0AEFC04907CA0FFF7E6FB97E02046D8
:10280000FDF7EAFD00900299FDF776FD8346294623
:10281000FDF71AFD4FF07E510190FDF715FD824640
:1028200070495046FDF768FD0190FDF7FCFD1FFA69
:1028300080FB5A4650217720FEF7F6FA4FF47A7162
:1028400004A802F0E7FC641C6C480068401C6B495B
:10285000086065A0FFF7B8FB69A00699FFF7B4FB15
:10286000711C6CA0FFF7B0FB0398FDF7C3FD001BC4
:102870004FF4616190FBF1F201FB12003C2190FBEF
:10288000F1FB594669A0FFF79FFB0398FDF7B2FDE6
:10289000001B4FF4616190FBF1F201FB12003C213F
:1028A00090FBF1F201FB120B594666A0FFF78CFB7F
:1028B0006A48006851490968401A4FF4616190FB09
:1028C000F1FB594666A0FFF77FFB644800684B495F
:1028D0000968401A4FF4616190FBF1F201FB1200AC
:1028E0003C2190FBF1FB594663A0FFF76DFB5B4871
:1028F000006842490968401A4FF4616190FBF1F2A7
:1029000001FB12003C2190FBF1F201FB120B594636
:102910005FA0FFF759FB39480068642148434F49DD
:10292000096890FBF1FB59465FA0FFF74DFBB8F13A
:102930000000A8F101011FFA81F87FF460AF5E4941
:102940003846FDF7D3FC83465C480068FDF744FD3C
:1029500059460190FDF77CFD0DD357493846FDF7E8
:1029600073FC834655480068FDF736FD59460190D3
:10297000FDF778FD02D252A0FFF726FB4FF00009C9
:1029800015E000224A217220FEF74EFA09F10109F2
:102990004FF47A70FFF796FD3846FDF72BFD83461E
:1029A0004B4646485946026851A0FFF70DFB384692
:1029B000FDF720FD41490968A1EB000BBBF1000FB9
:1029C00001DB584601E0CBF10000032804DD0021C3
:1029D0003846FDF73DFDD4D152A0FFF7F5FA09B016
:1029E000BDE8F08F000020417A6875616E67746100
:1029F000692E76616C3D32FFFFFF00003C00002035
:102A00007A6F6E676475616E2E76616C3D2564FF2A
:102A1000FFFF000064616E677169616E6475616ECD
:102A20002E76616C3D2564FFFFFF000062656E64D9
:102A300075616E66656E2E76616C3D2564FFFFFFE5
:102A40000000000062656E6475616E6D69616F2ED5
:102A500076616C3D2564FFFFFF0000004000002010
:102A60007368656E6779757368692E76616C3D254C
:102A700064FFFFFF000000007368656E677975668C
:102A8000656E2E76616C3D2564FFFFFF000000003F
:102A90007368656E6779756D69616F2E76616C3DDF
:102AA0002564FFFFFF0000006A696E64752E766181
:102AB0006C3D2564FFFFFF0000004040F400002053
:102AC000CEB4B4EFB5BDD4A4C9E8D6B5A3ACBDF8B7
:102AD000C8EBB5C8B4FD2B2B2B2B2B2B2B2B2B2B67
:102AE0002B2B2B2B2B2B2B2B2B2B2B2B2B2B00008C
:102AF000B5C8B4FD256420202CB5B1C7B02564A3AA
:102B0000AC20CAB1BCE42564732B2B2B2B2B2B2BB5
:102B10002B2B2B2B2B2B2B2B2B2B2B2B2B2B2B2B05
:102B20002B000000B4EFB5BDD4A4C9E8D6B5A3AC62
:102B3000BDE1CAF8B5C8B4FD2B2B2B2B2B2B2B2BAF
:102B40002B2B2B2B2B2B2B2B2B2B2B2B2B2B2B2BD5
:102B5000000000001CB54FF44070FEF707F8FFF7C7
:102B600085FC4FF4E13001F0EFFF4FF4965002F096
:102B700043F84FF4165002F099F84FF4E13002F0A8
:102B8000EDF84FF4E1514FF4FA7001F02BFFFEF72E
:102B90003BFBFDF729FF4FF4FA70FFF793FCFDF7BD
:102BA000C8FD00F01800182804D0FDF7EDFD0A203C
:102BB000FDF720FE00200B49086001200A49C1F8FA
:102BC000940108491031086008480121002380223F
:102BD000CDE9001006A10A4803F07AFA02F040FDA0
:102BE00000201CBD9081214200802142480000202D
:102BF0006D795F73746172745F7461736B00000050
:102C00003D3B00083EE064241F480078012814D1B1
:102C10001EA0FFF7D9F920A0FFF7D6F9204601F052
:102C200015FF21A0FFF7D0F91BA0FFF7CDF91EA0DB
:102C3000FFF7CAF918A0FFF7C7F913480078012871
:102C400003D111480078022805D0012019490860F5
:102C50001949C1F8B4010C48007802280ED112A01D
:102C6000FFF7B2F915A0FFF7AFF92046FFF76EFCAA
:102C70000DA0FFF7A9F908A0FFF7A6F9C820FFF7F4
:102C800021FC00BFBFE700003800002075702E70E7
:102C900069633D31FFFFFF00646F776E2E706963DB
:102CA0003D32FFFFFF00000075702E7069633D30FC
:102CB000FFFFFF00B081214200802142646F776EE8
:102CC0002E7069633D33FFFFFF0000004FF47A6010
:102CD000FFF7F8FB0BE04FF47A70FFF7F3FBFFF719
:102CE000D7FC4FF47A70FFF7EDFBFFF71DFDF2E71D
:102CF000C6B05AE100235A1E02A9AC48006802F08F
:102D0000F1FE01287ED1AA4908606420FFF7DAFBB2
:102D10000020A849C1F8B4019DF80950012D72D1D5
:102D2000A548007850B9A548042100238A01CDE9BF
:102D30000010A3A1A64803F0CBF902E0A5A0FFF77D
:102D400043F901209C49087002242CE002A90A5D85
:102D500002AB611C595C42EA0122A01E00EBD0715B
:102D6000491042AB23F8112002AA04F11001525C71
:102D700002AB491C595C42EA012200EBD0714910B8
:102D80003EAB23F8112002AA04F12001525C02ABF1
:102D9000491C595C42EA012200EBD07149103AAB60
:102DA00023F81120A41C112CD0DB3220ADF8A40094
:102DB000BDF808013238BDF8F81090FBF1F080B290
:102DC000ADF8A60000243CE042A830F814106000E2
:102DD000401C29AA22F820103AA830F814106000EC
:102DE000401C02EB8000418042A830F814106000C3
:102DF000801C22F8201042AA611C32F8111032F80F
:102E0000142001E0CEE06AE0881A002801DB0146C8
:102E100000E041423EAB621C33F8122091FBF2F11C
:102E20008AB26100891C29AB03EB81014A80072C1F
:102E300006DB00216000801C29AA02EB8000418093
:102E4000641C082CC0DB00240FE029A830F8240003
:102E5000610014AA22F8110029A800EB840041881F
:102E60006000401C22F81010641C112CEDDB9DF852
:102E70003A009DF83B1040EA0120ADF894009DF81F
:102E80003C009DF83D1040EA0120ADF896009DF809
:102E90003E009DF83F1040EA0120ADF898009DF8F3
:102EA00040009DF8411040EA0120ADF89A009DF8DD
:102EB00042009DF8431040EA0120ADF89C009DF8C7
:102EC00044009DF8451040EA0120ADF89E00002323
:102ED0001E2214A94C48006802F040FF62E0102D49
:102EE00003D10120494908705CE0112D0FD1002069
:102EF000464908700120464908604649C1F8B401B6
:102F000045A0FFF761F847A0FFF75EF84AE0122DF1
:102F100003D102203D49087044E0132D42D0142D06
:102F20003BD125480078002833D00020374908706D
:102F30002248006802F0DCF901221B217720FDF70E
:102F400073FF3C48006802F00FFB00201A4908702C
:102F500039A0FFF739F83DA0FFF736F800202C49DB
:102F60002039086001202B49C1F894012849103903
:102F700008603AA0FFF728F838A0FFF725F83AA034
:102F8000FFF722F83BA0FFF71FF83EA0FFF71CF861
:102F900008E044A0FFF718F804E0152D02D0162D24
:102FA00000D000BF002048490860A3E62C000020A4
:102FB000B401224200002242440000205C000020B4
:102FC0006D795F72756E636F64655F7461736B00BA
:102FD000CD300008D2D1D3D0C8CECEF1B1BBB4B47D
:102FE000BDA8A3ACCEDEB7A8D4D9B4CED6B4D0D0C9
:102FF0002D2D2D2D2D2D52756E636F64652D2D2D6C
:103000002D2D2D0D0A000000340000203800002076
:10301000B08121420080214275702E7069633D307D
:10302000FFFFFF00646F776E2E7069633D32FFFF14
:10303000FF0000004C0000207A6875616E677461C3
:10304000692E76616C3D30FFFFFF0000706167659F
:103050002079756E78696E67FFFFFF0076697320CF
:1030600062332C31FFFFFF007669732075702C31BD
:10307000FFFFFF0076697320646F776E2C31FFFFCE
:10308000FF000000D6F7B6AFC9BEB3FD2D2D2D2D24
:103090002D2D52756E636F64652D2D2D2D2D2D0DEB
:1030A0000A000000CEDEC8CECEF1BFC9C9BEB3FD56
:1030B0002D2D2D2D2D2D52756E636F64652D2D2DAB
:1030C0002D2D2D0D0A0000006C000020B0B000BFB7
:1030D00000BF00BF00BF00BF00BFFDE300235A1EBA
:1030E00017A9FA48006802F0FDFC01287ED10024EF
:1030F0002DE0600017A931F8100038B1600031F8F8
:1031000010000F3806A921F8240003E0002006A9CA
:1031100021F824006000401C17A931F81000C0EB12
:1031200000104FF6FF7101EA800006A901EB84014F
:10313000488006A800EB84004088009006A830F87C
:10314000242023462146E2A0FEF73EFF641C112CFA
:10315000CFDBBDF8A000C0B22D90BDF8A200C0B278
:103160002E90BDF8A4000F382B90BDF8A60000F0FB
:10317000FF0ABDF8A8000F381FFA80F9BDF8AA00B1
:1031800000EB40004700DAA02D99FEF71DFFDBA001
:103190002E99FEF719FFDEA02B99FEF715FF514679
:1031A000E2A0FEF711FF4946E4A0FEF70DFF394605
:1031B000E7A0FEF709FF0121EA48FDF7DDFB80B932
:1031C000BAF1000F0DD1E8A0FEF7FEFEE6A0FEF773
:1031D000FBFEE9A0FEF7F8FE0020EC49087002F0C3
:1031E00087F8E1A0FEF7F0FEDFA000E080E3FEF745
:1031F000EBFEE7A0FEF7E8FEE8A0FEF7E5FEEAA09A
:10320000FEF7E2FEECA0FEF7DFFEEFA0FEF7DCFE2D
:103210002D9810B90020ED4908600120EB492839AC
:103220000860EB49C1F894010020C1F8A001E94809
:10323000006802F06BFABAF1000F7CD0DEA0FEF756
:10324000C3FEE5A0FEF7C0FEC7A0FEF7BDFEE2A0EC
:10325000FEF7BAFEC4A0FEF7B7FE0220E3490870ED
:103260000020FFF773F94FF4FA60FFF72BF9E0A0A5
:10327000FEF7AAFE0122C82109F1030001F06CFB50
:103280000222642109F1020001F066FB03220A21F7
:1032900009F1010001F060FB0121B248FDF76CFB70
:1032A00090B10020C949083908600120C849C1F817
:1032B000B4014FF4FA60FFF705F90120C34908395A
:1032C0000860C349C1F8B40139E000224A217220E4
:1032D000FDF7AAFD4FF47A70FFF7F4F8BEA0FEF7F1
:1032E00073FEB5A0FEF770FE3C2097FBF0F03C218A
:1032F00090FBF1F001460590C1A0FEF765FE4FF48A
:10330000616097FBF0F100FB11703C2190FBF1F044
:1033100001460590C0A0FEF757FE4FF4616097FB91
:10332000F0F100FB11703C2190FBF1F201FB120067
:103330000146059000E023E0BDA0FEF745FE381EE3
:10334000A7F10107C1D1002412E0A248006802F0F1
:103350000BF90120A5490870022001F077FB4FF41A
:103360007A60FFF7AFF89B48006802F0CFF9641C61
:10337000072CEADB01209D490870002001F066FB64
:10338000B1A0FEF721FEB0A0FEF71EFE4FF4FA70CA
:10339000FFF798F8B14806680020B1490860002599
:1033A00009E006A800EB85004088AD49096808449B
:1033B000AB4908606D1C102DF3DBA9480168A9A07A
:1033C000FEF702FE00202C90002508E006A830F849
:1033D000250018B9681EC0B22C9002E06D1C102D9B
:1033E000F4DB00BFA6A02C99FEF7EEFD0024D5E18A
:1033F00006A830F82400B0423CD104F1020808F1DC
:1034000001023146A5A0FEF7DFFD06A800EB88000B
:10341000B0F802B00020AB490860002509E006A81A
:1034200000EB85004088A74909680844A549086061
:103430006D1CA542F3DDA348026889480168A2A07B
:10344000FEF7C2FD06AAA11C32F82100FCF7CDFF51
:1034500005903046FCF7C0FF06A90490601C01EB04
:10346000800040880090E0B2DDE904232C99FFF74A
:103470008DF996E106A9601C31F82000B04224DDE8
:1034800006A830F82400B0421FDAA04606AA611C44
:1034900032F8211032F82420881AFCF79DFF06A983
:1034A000049031F82410701AFCF796FF03900499E9
:1034B000FCF754FF4FF07E510590FCF71AFF2F9058
:1034C000002080490860002516E166E134000020F4
:1034D0005B25645D5B305D203D202564202020203D
:1034E000205B25645D5B315D203D2025640D0A0075
:1034F00066616E20203D2025640D0A006174756FA1
:10350000646F6F7220203D2025640D0A00000000CA
:103510006174756F646F6F725F646F776E54656D01
:1035200020203D2025640D0A000000007265686FB0
:103530007420203D2025640D0A0000007265686F2C
:103540007474656D20203D2025640D0A0000000084
:103550007265686F7474696D6520203D2025640D67
:103560000A000000000C0140706167652079756EEB
:1035700078696E67FFFFFF0070616765206775619E
:103580006E62696C756D656EFFFFFF004400002080
:103590007669732062332C30FFFFFF007669732059
:1035A00075702C30FFFFFF0076697320646F776EB3
:1035B0002C30FFFFFF0000006A696E64752E766193
:1035C0006C3D30FFFFFF00000D0A0000B881214272
:1035D000008021424C0000207A6875616E6774613A
:1035E000692E76616C3D31FFFFFF0000380000203E
:1035F000BFAACABCD4A4B8C9D4EF0D0A0000000009
:103600007368656E6779757368692E76616C3D25A0
:1036100064FFFFFF000000007368656E67797566E0
:10362000656E2E76616C3D2564FFFFFF0000000093
:103630007368656E6779756D69616F2E76616C3D33
:103640002564FFFFFF00000079756E78696E672EB4
:10365000746D302E656E3D31FFFFFF00F4000020D9
:10366000400000202D2D2D2D2D2D2D2D2D2D2D2DDE
:103670002D2DD7DCCAB1B3A42564730D0A00000058
:103680002D2D2D2D2D2D2D2D2D2D2D2D2D2DD7DC11
:10369000B6CECAFD3A2025640D0A0000B5B1C7B008
:1036A000CEC2B6C82564A3ACBDF8C8EBB5DA2564B4
:1036B000B6CE2A2A2A2A2A2A2ABAE3CEC2B6CE0AA5
:1036C000000000003C000020D7DCCAB1B3A4256490
:1036D000732CB5B1C7B0D2D1D4CBD0D0256473FF91
:1036E000FFFF000006A800EB85004088B24909688A
:1036F0000844B14908606D1CA542F3DB4FF07E50D1
:103700002F99FCF7F3FD06A901EB8401029048888C
:10371000FCF76BFE01900299FCF7EEFD0490A648C1
:103720000068FCF759FE03900499FCF78DFD0590A5
:10373000FCF760FEA049086006A901EB84014888F7
:10374000FCF753FE04902F99FCF7D6FD0590FCF78B
:1037500051FE834606A901EB84014888FCF745FE2B
:1037600001902F99FCF7C8FD0290FCF743FE80B250
:1037700006AA611C059032F82100FCF736FE049081
:103780003046FCF729FE039005980090E0B2DDE991
:1037900003232C99FEF7FAFF03E0641C112CFFF6BB
:1037A00027AE00BF85A0FEF70FFC641C06A830F80A
:1037B000240000B9112400BF20E006A800EB84001B
:1037C000B0F802B006AA611C32F82100FCF70DFE29
:1037D00006A9059031F82400FCF707FECDF800B0EB
:1037E0000490E0B2DDE904232C99FEF7CFFF06A98F
:1037F000601C31F8200000B91424641C112CDCDB9F
:1038000071A0FEF7E1FB78A0FEF7DEFB6EA0FEF7ED
:10381000DBFB7FA0FEF7D8FB7DA0FEF7D5FB2E9843
:1038200098B308E000224A217220FDF7FDFA4FF418
:103830007A70FEF747FE7B480068B0F57A7FF1DCCE
:103840004FF47A70FEF73EFE022077490870FEF7CB
:103850007DFE08E000224A217220FDF7E5FA4FF4D0
:103860007A70FEF72FFE6F4801682B988142F1DCD9
:10387000002421E041F28830FEF724FE02206A494C
:1038800008700320FEF762FE09E01DE000224A21D5
:103890007220FDF7C9FA4FF47A70FEF713FE04EBBD
:1038A000C40000EB04104FF44871A1EB80005D49A7
:1038B00009688842EADB641C052CDBDB02205A49DC
:1038C00008706420FEF742FE00224A217220FDF7B4
:1038D000ABFA01221B2100E06BE07720FDF7A4FA90
:1038E0004FF47A70FEF7EEFD5048006801F03CFEA0
:1038F0004FA0FEF769FBAFF29030FEF765FB4CA0DE
:10390000FEF762FBAFF2A030FEF75EFB4DA0FEF7C4
:103910005BFB51A0FEF758FB54A0FEF755FB59A0E6
:10392000FEF752FB00205C49086001205B49C1F8AA
:10393000940159491031086059A0FEF745FB58A081
:10394000FEF742FB59A0FEF73FFB5BA0FEF73CFBF6
:103950005DA0FEF739FB01205F49C1F8B4013220B8
:10396000FEF7B0FD00205D4908603220FEF7AAFD99
:1039700001205949C1F8B4013220FEF7A3FD00200F
:103980005549C1F8B4013220FEF79CFD012052498F
:10399000C1F8B4013220FEF795FD00204E49C1F870
:1039A000B4014FA0FEF710FB00205549087001F04C
:1039B0009FFCFFF793BB00003C000020CAA3D3E0AC
:1039C000BCD3C8C8B6CE0A007765706F2073686133
:1039D0006F6A696563697368752E76616C2C32371E
:1039E00032FFFFFF000000007368616F6A69656362
:1039F000697368752E76616C3D7368616F6A69657D
:103A000063697368752E76616C2B31FFFFFF0000D0
:103A100079756E78696E672E746D302E656E3D30E7
:103A2000FFFFFF00F4000020380000204C000020C1
:103A30007A6875616E677461692E76616C3D30FFDE
:103A4000FFFF00007368656E6779757368692E768D
:103A5000616C3D30FFFFFF007368656E67797566C6
:103A6000656E2E76616C3D30FFFFFF007368656EFA
:103A70006779756D69616F2E76616C3D30FFFFFF70
:103A8000000000006A696E64752E76616C3D31300D
:103A900030FFFFFF000000009081214200802142A2
:103AA0007669732062332C31FFFFFF007669732043
:103AB00075702C31FFFFFF0076697320646F776E9D
:103AC0002C31FFFFFF00000070616765206A6965A7
:103AD000736875FFFFFF000000002242B40122421C
:103AE000BDE1CAF8C8CECEF12D2D2D2D2D2D52754C
:103AF0006E636F64652D2D2D2D2D2D0D0A00000098
:103B00004400002041F28830FEF7DCFCFDF7ECFEBB
:103B100010E04FF47A70FEF7D5FC00224A217220A3
:103B2000FDF782F90448006820B901221B217720A3
:103B3000FDF77AF9EDE70000000100201CB504460E
:103B400000224621012001F093FF24490860002251
:103B50001E21012001F08CFF214908600022502124
:103B6000012001F085FF1F49086003220021012088
:103B700001F07EFF1C49086001F0ECFE1B49086063
:103B80001B48012100238022CDE9001019A11D4806
:103B900002F09EFA1C48012100238022CDE900108A
:103BA0001AA11E4802F094FA1D4803210023802226
:103BB000CDE900101BA1204802F08AFA1F4801211C
:103BC00000238022CDE900101DA1214802F080FAD7
:103BD0002048006801F08CFB1CBD00002C00002078
:103BE00030000020340000202000002024000020AD
:103BF0004C0000206D795F73686F77686D695F7442
:103C000061736B00053B0008500000206D795F6711
:103C1000657456495F7461736B000000CD2C000819
:103C2000540000206D795F696E7374727563745F00
:103C30007461736B00000000F12C0008600000202C
:103C40006D795F646F6F725F7461736B0000000069
:103C5000052C0008480000202DE9F04105460E46DD
:103C60001C4807681C480068001D01F0D3F850B9D3
:103C70001948006890F82C100120884017490968FD
:103C8000814316480160681C38B936B11248016892
:103C9000091D134801F004F91AE07C190E48006868
:103CA0004460BC4207D20C480168091D0D480068F9
:103CB00001F0DCF80CE008480168091D0A480068BA
:103CC00001F0D4F809480068844201D20748046032
:103CD000BDE8F081500100203C010020540100208B
:103CE000DC1D002044010020400100206C01002068
:103CF00010B5044601F0E0F824480068401C234950
:103D000008602348006840B92148046008460068FC
:103D100001280DD100F0EEF90AE01E48006838B91C
:103D20001B480068C06AE16A884201D818480460EC
:103D300019480068401C184908600846006860641B
:103D400094F82C100120884014490968084313494D
:103D50000860E16A01EB8101114A02EB8100211D3B
:103D600001F09EF801F0ECF80A48006868B10848D4
:103D70000068C06AE16A884207D24FF08050094962
:103D80000860BFF34F8FBFF36F8F10BD4C01002051
:103D90003C0100205801002068010020540100204F
:103DA0000C1B002004ED00E010B501F085F8104870
:103DB0000068D0B90F4801F049F80F4801F046F803
:103DC0000C480E4908600C480D490860002210217B
:103DD000052001F04DFE064908600846006820B144
:103DE00008A10348006801F09FF901F0A9F810BD8F
:103DF00080010020F01D0020041E0020780100201A
:103E00007C010020546D72510000000070B523E069
:103E100001F0FCFC1348006808B9012000E0002014
:103E2000054602F011FBBDB901F046F80D48C06827
:103E3000C468201D00F0EEFF0B480068401E0A49D0
:103E400008600A480068401E0849086001F078F8D8
:103E5000204600F060F800BF044800680028D7D171
:103E600070BD0000C81D00204C010020480100204A
:103E700070B504460D46206C70B1216CE0680844B2
:103E8000E0606168E068884201D32068E06028460D
:103E9000226CE168FCF7B4F970BD2DE9F0410446ED
:103EA0000F4615464FF00008A66B206C40B92068FD
:103EB00060BB606802F002FA80460020606025E086
:103EC0007DB93946226CA068FCF79AF9216CA0688C
:103ED0000844A060D4E90110884217D32068A0608C
:103EE00014E03946226CE068FCF78AF9216CE0683E
:103EF000401AE0602168E068884203D2216C606863
:103F0000401AE060022D01D106B1761E701CA0633C
:103F10004046BDE8F08110B50446206B01F048F83A
:103F2000204601F045F810BD0146084A12681268A3
:103F30000AB9012200E000220A600A6822B9034A95
:103F40001268D268106800E00020704778010020F5
:103F500030B54FF4A043174800F007042CB1C01D42
:103F600020F00700134C041B1B1B0246124C22605E
:103F70000024114D6C60D018083820F007000F4C59
:103F8000206000240D4D2D686C600C4D2D682C6058
:103F90001146441A4C60094C24680C60084D4C686A
:103FA0002C60084D4C682C604FF00044064D2C608E
:103FB00030BD0000181E00208C010020940100205C
:103FC0009C01002098010020A001002000BFFFF705
:103FD0001DFF064800680128F9D94FF080500449B8
:103FE0000860BFF34F8FBFF36F8FF0E70C1B00200B
:103FF00004ED00E02DE9F04106460D4617469846CF
:10400000069C0DB9246000E02760E6632564012169
:10401000204601F04BFE84F850800020A064BDE8EB
:10402000F08100002DE9F05F82460F4690469B46E6
:104030000A9E0C9C4FEA8801A522206BFCF7F2F83F
:10404000A8F10100216B01EB800929F0070909F0B3
:10405000070008B9012000E0002028B940F22B3207
:104060001BA120A0FDF7B0FF002507E0795D04F15A
:1040700034004155785D00B902E06D1C102DF5D378
:1040800000BF002143200155202E00D31F26E662E9
:10409000E66400202065201D00F0E5FE04F1180014
:1040A00000F0E1FE2461C6F12000A06164620020FE
:1040B000606584F858005A465146484600F03AFC7C
:1040C00020600B9808B10B980460BDE8F09F0000D9
:1040D0002E2E5C4672656552544F535C7461736B4F
:1040E000732E63004572726F723A25732C25640D2E
:1040F0000A00000010B5002407E004EB84010F4A19
:1041000002EB810000F0A2FE641C202CF5D30C48C9
:1041100000F09CFE0B4800F099FE0B4800F096FE64
:104120000A4800F093FE0A4800F090FE044809494E
:10413000086004480849086010BD00000C1B0020FE
:104140008C1D0020A01D0020B41D0020C81D0020D3
:10415000DC1D0020400100204401002010B5014674
:10416000164800E0006803688B42FBD302464368B0
:1041700013448B4204D143684C6823444360014696
:104180000A464B6813440468A34211D10C4C0368DF
:104190002468A34208D04B680468646823444B60D9
:1041A00003681B680B6005E0054B1B680B6001E0B2
:1041B00003680B60884200D0016010BD8C010020B4
:1041C000940100202DE9F04104460D4616461F4695
:1041D0004FF0000865602461B5420CD8F01BA1695E
:1041E000884202D34FF0010811E0211D0948006800
:1041F00000F03CFE0BE0BE4204D2BD4202D34FF0C1
:10420000010804E0211D0448006800F02FFE40462C
:10421000BDE8F0817C0100207801002070B50546E2
:1042200000F04AFEA86B08B9012400E0002400F069
:1042300087FE204670BD70B5054600F03DFEA86BB8
:10424000E96B884201D1012400E0002400F078FEEF
:10425000204670BD2DE9F3410D460098846C00277F
:104260002CB940F6CE121AA11EA0FDF7ADFEA06B30
:10427000E16B884201D2012000E0002028B940F61D
:10428000CF1213A117A0FDF79FFEA06BE16B884230
:104290001BD294F945602A4669462046FFF7FDFD8A
:1042A0000746701C60B9606A08B9012000E0002070
:1042B00050B904F1240002F06DF828B1012703E0A1
:1042C000701C40B284F8450000BF3846BDE8FC8150
:1042D0002E2E5C4672656552544F535C7175657540
:1042E000652E63004572726F723A25732C25640D3A
:1042F0000A000000F8B505460F4613480068C0687C
:10430000C468201D00F086FDE069012818D1A0696D
:1043100041192B463A462046FFF754FF80B1002052
:1043200003462A4601460090204602F0BDF90646A3
:104330002EB94FF4027205A10AA0FDF745FE00BF99
:104340002046616A8847F8BD780100202E2E5C4621
:1043500072656552544F535C74696D6572732E6358
:10436000000000004572726F723A25732C25640DAF
:104370000A000000F0B587B070E0039800280CDA5E
:1043800004AE2EB940F2E7223AA140A0FDF71CFE90
:10439000D6E90020B168904700BF039800285DDB94
:1043A000059C606908B9012000E0002010B9201DBB
:1043B00000F030FD02A800F0C7F8054603980A286F
:1043C0004AD2DFE800F00905072C2E4506082D2FFC
:1043D00000BF00BF00BF00BF0498A2698118034658
:1043E0002A462046FFF7EEFEC0B12046616A8847A4
:1043F000E069012812D1002000900498A1694218B8
:1044000000231946204602F04FF907462FB940F223
:10441000213218A11DA0FDF7D7FD00BF1DE000BF90
:104420001BE000BF0498A061A06908B1012000E072
:10443000002028B94FF44E720EA114A0FDF7C4FD60
:10444000A06941192B462A462046FFF7BBFE04E02F
:10445000204600F0ADFD00E000BF00BF00231A467B
:1044600003A90E48006801F03DFB002885D107B084
:10447000F0BD00002E2E5C4672656552544F535CB1
:1044800074696D6572732E63000000004572726F6F
:10449000723A25732C25640D0A000000800100206B
:1044A000F8B505460C4601F0B1F9684600F04CF845
:1044B0000646009820BB44B9B54206D801F0C4FFB7
:1044C00031462846FFF716FF1CE03CB10E48006855
:1044D000006808B9012000E000200446A91B22461C
:1044E0000A48006800F036FE01F0AEFF50B94FF008
:1044F000805007490860BFF34F8FBFF36F8F01E013
:1045000001F0A2FFF8BD00007C0100208001002026
:1045100004ED00E00A490968096809B9012100E0D1
:10452000002121B14FF0FF31064A116006E0044935
:104530000968C968C868034A41681160704700008B
:10454000400100206C01002070B5044601F000FE1F
:10455000054607480068854204D200F00BF80120A8
:10456000206001E00020206001480560284670BD01
:10457000880100202DE9F8432DE021480068C0683B
:1045800005681F480068C068C468201D00F042FC30
:104590002046616A8847E06901281CD1A069461954
:1045A000AE4207D966602461211D1548006800F0FD
:1045B0005DFC10E0002003462A460146009020469C
:1045C00002F072F807462FB940F292320DA113A003
:1045D000FDF7FAFC00BF0A480068006808B901202E
:1045E00000E000200028C8D00548D0F800800F481F
:1045F0000068034908600D48C0F80080BDE8F883F2
:10460000780100202E2E5C4672656552544F535C33
:1046100074696D6572732E63000000004572726FDD
:10462000723A25732C25640D0A0000007C010020DD
:104630000B480068401C08B9012000E0002020B9A8
:10464000F42208A112A0FDF7BFFC00BF502080F3A8
:104650001188BFF34F8FBFF36F8F00BF00BFFEE71E
:10466000A40100202E2E5C4672656552544F535CA7
:10467000706F727461626C655C525644535C415257
:104680004D5F434D335C706F72742E630000000009
:104690004572726F723A25732C25640D0A00000072
:1046A00070B5054600262C462DB940F281620EA158
:1046B00012A0FDF789FC15496069884201D10120EB
:1046C00000E0002070B11249A06A884201D10120A7
:1046D00000E0002030B9A06A08B9012000E0002005
:1046E00000B10126304670BD2E2E5C4672656552C3
:1046F000544F535C7461736B732E63004572726F19
:10470000723A25732C25640D0A000000DC1D002080
:10471000B41D002008B500BF6846FFF705FC04463D
:1047200020460099FFF7BCFEFFF724FEF4E770B5C2
:10473000044600F0C1FB94F945501AE0A06C38B172
:1047400000212046FFF786FD88B100F057FE0EE0FD
:10475000606A08B9012000E0002038B904F12400A3
:1047600001F018FE18B100F049FE00E003E0681EF9
:1047700045B2002DE2DC00BFFF2084F8450000F0C8
:10478000DFFB00F099FB94F9445010E0206908B970
:10479000012000E0002048B904F1100001F0FAFD0A
:1047A00008B100F02BFE681E45B200E001E0002DCC
:1047B000ECDC00BFFF2084F8440000F0C1FB70BDBA
:1047C0002DE9F04104464FF0000801F01FF83E4883
:1047D000006808B9FFF7BCFB3C480068204000288F
:1047E0005FD1A4B1083404F0070080B104F00700E1
:1047F000C0F10800044404F0070008B9012000E0FB
:10480000002020B9BF2232A13BA0FDF7DDFB002C28
:1048100047D03D480068844243D83C4E3046056846
:1048200001E02E462D686868A04202D22868002860
:10483000F7D125480068854233D0306800F1080878
:10484000286830606868001B102813D92F1907F0FA
:10485000070008B9012000E0002020B9EC221CA1CB
:1048600025A0FDF7B1FB6868001B78606C603846D6
:10487000FFF774FC244968680968081A224908602F
:104880000846006822490968884203D21E48006829
:104890001F4908600D49686809680843686000207E
:1048A000286001F0D1FD08F0070008B9012000E000
:1048B000002028B94FF4967205A10FA0FDF784FBE4
:1048C0004046BDE8F081000094010020A0010020D6
:1048D0002E2E5C4672656552544F535C706F727435
:1048E00061626C655C4D656D4D616E675C686561AC
:1048F000705F342E630000004572726F723A257348
:104900002C25640D0A000000980100208C01002075
:104910009C0100200648006830B10549096801F192
:104920005000096D491C0160014800687047000093
:104930003C010020001F4FF080730360001F21F036
:1049400001030360001F034B03601438026020382A
:10495000704700003146000870B504460D46164603
:1049600000221B217720FCF75FFA00222B21772001
:10497000FCF75AFA04EB84004FF6FF7101EA40029B
:1049800050217720FCF750FA08E000224A217220DB
:10499000FCF74AFA4FF47A70FDF794FD094909686B
:1049A000081B002801DB014600E04142A942ECDC83
:1049B00001200549087000F049F84FF4FA60FDF74E
:1049C00081FD70BDF40000203800002005E00120CA
:1049D000024908600249C1F8B401F8E7B0812142F8
:1049E000008021427FB505460C4601210420FCF7DA
:1049F000C7F8ADF80850ADF804400020ADF8060047
:104A0000ADF80A0001A91048FCF71CFF01210E486F
:104A1000FCF7F8FD012211460B48FCF708FF0021C6
:104A20000948FCF7F2FD1E208DF8000006208DF8E5
:104A3000010000208DF8020001208DF80300684677
:104A4000FCF75CF87FBD00000008004070B504462C
:104A50004FF4967604EB8400450004B935460121F5
:104A60001E48FBF789FF01282ED001201C49086051
:104A700000201C49C1F8B4011AE06420FDF722FDB2
:104A80006D1E01211548FBF777FF012803D116A001
:104A9000FDF79AFA10E01948007818B918A0FDF748
:104AA00093FA09E0002D03DC1CA0FDF78DFA03E06A
:104AB000301EA6F10106E0D100BF002E04DC1DA0CF
:104AC000FDF782FAFFF782FF0120054908600549DA
:104AD000C1F8B40100200949087070BD000C014004
:104AE000B081214200802142D4CBD0D0B5BDCFC20D
:104AF000CFDECEBBCDCBB3F60D0A000038000020D0
:104B0000BDD3CAD5B5BDCDA3D6B9D6B8C1EEA3BA6B
:104B1000CAD6B6AFCDCBB3F60D0A0000D4CBD0D0F9
:104B2000B5BDB4EFC9E8B6A8CAB1BCE4CDCBB3F605
:104B30000D0A0000C2AFC3C5C9CFC9FDB3ACCAB12D
:104B4000B9CAD5CF0D0A000010B586B004460121C0
:104B50008803FCF735F801210420FCF731F84FF405
:104B60000070ADF8140003208DF8160018208DF8A1
:104B7000170005A91E48FBF774FE4FF48060ADF8DE
:104B8000140004208DF8170005A91948FBF769FEE9
:104B900025208DF8000005208DF8010000208DF8FB
:104BA000020001208DF803006846FBF7A7FF01947F
:104BB0000020ADF80800ADF80A00ADF80C00ADF823
:104BC00010000C20ADF80E0001A90A48FDF786F987
:104BD000012240F225510748FDF75BF90121054804
:104BE000FDF7C5F840210348FDF7B8F806B010BD41
:104BF000000801400038014010B586B0044601218C
:104C00004804FBF7BDFF01210420FBF7D9FF25482D
:104C1000FDF7BAF80420ADF8140003208DF8160053
:104C200018208DF8170005A91F48FBF71AFE082069
:104C3000ADF8140004208DF8170005A91A48FBF7F9
:104C400010FE01940020ADF80800ADF80A00ADF8A0
:104C50000C00ADF810000C20ADF80E0001A91148B1
:104C6000FDF73CF920210F48FDF778F8012240F2CA
:104C700025510C48FDF70DF926208DF80000052080
:104C80008DF8010000208DF8020001208DF803004E
:104C90006846FBF733FF01210248FDF768F806B0CC
:104CA00010BD0000004400400008014010B586B06F
:104CB000044601210820FBF783FF01218804FBF74C
:104CC0005FFF4FF48060ADF8140003208DF81600EC
:104CD00018208DF8170005A91E48FBF7C2FD4FF4F8
:104CE0000060ADF8140004208DF8170005A91948DC
:104CF000FBF7B7FD27208DF8000005208DF8010097
:104D000000208DF8020001208DF803006846FBF7B3
:104D1000F5FE01940020ADF80800ADF80A00ADF8EA
:104D20000C00ADF810000C20ADF80E0001A90A48E7
:104D3000FDF7D4F8012240F225510748FDF7A9F804
:104D400001210548FDF713F840210348FDF706F857
:104D500006B010BD000C01400048004010B586B000
:104D600004460121C804FBF70BFF01211020FBF7CB
:104D700027FF2648FDF708F84FF48060ADF81400CF
:104D800003208DF8160018208DF8170005A920487B
:104D9000FBF767FD4FF40060ADF8140004208DF8B8
:104DA000170005A91A48FBF75CFD01940020ADF837
:104DB0000800ADF80A00ADF80C00ADF810000C20AA
:104DC000ADF80E0001A91148FDF788F820210F4821
:104DD000FCF7C4FF012240F225510C48FDF759F8B9
:104DE00034208DF8000005208DF8010000208DF89A
:104DF000020001208DF803006846FBF77FFE0121C9
:104E00000248FCF7B4FF06B010BD0000004C0040A3
:104E10000010014001460A69D1E901309860D1E9EA
:104E2000010358605068884201D1886850600020B2
:104E300008611068401E10601068704770B5044625
:104E40000D462946204600F03DFD70BD00F10801E9
:104E500041604FF0FF31816000F10801C1600161E4
:104E600000210160704700210161704710B50246C2
:104E70000B685C1C0CB9106907E002F1080000E047
:104E80004068446824689C42FAD944684C604C6885
:104E9000A160886041600A611468641C146010BDE0
:104EA00042684A6093688B609368596091600861BA
:104EB00003685B1C0360704710B500BF502080F38F
:104EC0001188BFF34F8FBFF36F8F00BF0B4800688F
:104ED000401C0A4908600846006801280DD10848AE
:104EE0000068C0B208B9012000E0002028B94FF4E2
:104EF000BD7204A10EA0FDF767F810BDA40100204B
:104F000004ED00E02E2E5C4672656552544F535CF2
:104F1000706F727461626C655C525644535C4152AE
:104F20004D5F434D335C706F72742E630000000060
:104F30004572726F723A25732C25640D0A000000C9
:104F400010B50B48006828B940F2811209A114A0DD
:104F5000FDF73AF806480068401E05490860084613
:104F6000006820B9002080F3118800BF00BF10BD89
:104F7000A40100202E2E5C4672656552544F535C8E
:104F8000706F727461626C655C525644535C41523E
:104F90004D5F434D335C706F72742E6300000000F0
:104FA0004572726F723A25732C25640D0A00000059
:104FB00070B506463546002E35D0083D2C461A49B8
:104FC00060680968084008B1012000E0002028B9A5
:104FD0004FF4A07215A11FA0FCF7F6FF206808B9D6
:104FE000012000E0002028B940F241120FA119A0D1
:104FF000FCF7EAFF0C4960680968084098B120682E
:1050000088B90949606809688843606000F0FEFB60
:105010001449606809680844124908602046FFF78F
:105020009DF801F011FA70BDA00100202E2E5C4603
:1050300072656552544F535C706F727461626C6537
:105040005C4D656D4D616E675C686561705F342EA7
:10505000630000004572726F723A25732C25640D4F
:105060000A00000098010020064800684FF47A7199
:10507000B0FBF1F0401E4FF0E021486107200861CD
:10508000704700001401002070B5FBF7A3F8054637
:10509000102D11D305F1E02090F8F043104800786E
:1050A000844201DB012000E0002028B94FF42A727D
:1050B0000CA117A0FCF788FF1948006800F4E06015
:1050C00018490968884201D8012000E0002028B969
:1050D0004FF42E7203A10EA0FCF776FF70BD000006
:1050E000A80100202E2E5C4672656552544F535C19
:1050F000706F727461626C655C525644535C4152CD
:105100004D5F434D335C706F72742E63000000007E
:105110004572726F723A25732C25640D0A000000E7
:105120000CED00E0AC010020024600200BE0084B33
:1051300053F8303033B9064B43F8301003EBC0035B
:105140005A6002E0401C0828F1D300BF70470000FD
:10515000CC1A00202DE9F04105460E4617462C4694
:10516000FFF7AAFE94F94400401C10B9002084F80F
:10517000440094F94500401C10B9002084F8450013
:10518000FFF7DEFEA06B28B93A46314604F1240051
:1051900000F064F92046FFF7CAFABDE8F08100008C
:1051A00070B504460025ACB10F48006808B901206D
:1051B00000E0002028B940F2CF420CA110A0FCF77B
:1051C00003FF00F023FB00212046FEF745FD01F020
:1051D0003BF905463DB94FF080500D490860BFF3DB
:1051E0004F8FBFF36F8F70BD740100202E2E5C4671
:1051F00072656552544F535C7461736B732E630018
:105200004572726F723A25732C25640D0A000000F6
:1052100004ED00E02DE9F04704460F464FF0000989
:105220002CB940F2794226A12AA0FCF7CDFE0FB19D
:10523000012000E0002028B940F27A4220A125A0F8
:10524000FCF7C2FE2748006808B9012000E00020F2
:1052500028B940F27B421AA11EA0FCF7B5FE00F06F
:10526000D5FA214806682068C5192068B04207D9D8
:105270002068A8420BD9B54209D94FF0010906E0D0
:105280002068A84201D8B54201D94FF00109256034
:10529000B9F1000F03D0A81B0021FEF7DDFC01F0DF
:1052A000D3F88046B8F1000F07D14FF080500F4976
:1052B0000860BFF34F8FBFF36F8FBDE8F08700002A
:1052C0002E2E5C4672656552544F535C7461736B4D
:1052D000732E63004572726F723A25732C25640D2C
:1052E0000A000000740100205001002004ED00E0DD
:1052F00070B50546FFF7E0FD15B92D48006800E0E0
:1053000028460446201DFFF785FD78B9E06A00EBCA
:105310008000284951F8200040B994F82C10012051
:10532000884025490968814323480160A06A18B173
:1053300004F11800FFF76EFD20480068401C1F496B
:1053400008601B480068844209D1211D1C48FFF7F2
:10535000A7FD1C480068401C1A49086009E01A486B
:105360000068401E184908602046FEF7D4FDFFF78C
:10537000D1F8FFF7E5FD15480068C0B10C4800689A
:10538000844214D11248006808B9012000E00020CE
:1053900028B940F265420FA113A0FCF715FE4FF0AB
:1053A000805015490860BFF34F8FBFF36F8F70BDFA
:1053B0003C0100200C1B002054010020680100204B
:1053C000C81D0020480100204C0100205801002089
:1053D000740100202E2E5C4672656552544F535C5A
:1053E0007461736B732E63004572726F723A25732A
:1053F0002C25640D0A00000004ED00E001200149A5
:10540000086070476001002070B504460D462CB955
:1054100040F6063207A10CA0FCF7D6FD0E48016845
:1054200018312046FFF722FD01212846FEF714FC23
:1054300070BD00002E2E5C4672656552544F535C61
:105440007461736B732E63004572726F723A2573C9
:105450002C25640D0A0000003C01002070B50546B3
:105460000E4614462DB940F6313209A10DA0FCF7C5
:10547000ABFD1048016818312846FFF711FD0CB14B
:105480004FF0FF3621463046FEF7E6FB70BD0000C8
:105490002E2E5C4672656552544F535C7461736B7B
:1054A000732E63004572726F723A25732C25640D5A
:1054B0000A0000003C01002070B505462C46002D76
:1054C0004BD02649E06A0968C96A884245D2A0697A
:1054D00000F0004028B921480068C06AC0F12000EF
:1054E000A061E16A01EB81011D4A02EB8101606963
:1054F000884201D1012000E0002050B3201DFFF7B9
:1055000089FC78B9E06A00EB8000154951F8200069
:1055100040B994F82C100120884012490968814351
:10552000104801600D480068C06AE06294F82C10D1
:10553000012088400B49096808430A490860E16A6C
:1055400001EB8101064A02EB8100211DFFF7A8FC57
:1055500003E002480068C06AE06270BD3C010020C0
:105560000C1B00205401002070B505462C462DB9B7
:1055700040F2AB621AA11FA0FCF726FD74B32148CC
:10558000006884422AD0FFF797FC2046FFF788F88E
:1055900010B3201DFFF73EFC94F82C10012088402A
:1055A00019490968084318490860E16A01EB81015B
:1055B000164A02EB8100211DFFF772FC1149E06AD7
:1055C0000968C96A884207D34FF0805010490860C3
:1055D000BFF34F8FBFF36F8FFFF7B2FC70BD0000BA
:1055E0002E2E5C4672656552544F535C7461736B2A
:1055F000732E63004572726F723A25732C25640D09
:105600000A0000003C010020540100200C1B002077
:1056100004ED00E010B504462CB940F6C13205A1F6
:1056200009A0FCF7D1FC0C48006820600B4800681A
:10563000606010BD2E2E5C4672656552544F535CFF
:105640007461736B732E63004572726F723A2573C7
:105650002C25640D0A000000640100205001002088
:105660001CB51A4800210B468222CDE9001018A172
:10567000194800F02DFD0446012C02D100F0DAFF9C
:105680000446012C15D100BF502080F31188BFF3D0
:105690004F8FBFF36F8F00BF4FF0FF300F4908608F
:1056A00001200F49086000200E49086000F076F9DB
:1056B0000BE0601C08B1012000E0002028B940F296
:1056C000847209A10DA0FCF77FFC1CBD70010020B5
:1056D00049444C4500000000CD3F00086C0100200B
:1056E00058010020500100202E2E5C467265655244
:1056F000544F535C7461736B732E63004572726F09
:10570000723A25732C25640D0A00000070B5054619
:10571000FFF7D2FB15B92C48006800E02846044684
:10572000201DFFF777FB78B9E06A00EB800027497E
:1057300051F8200040B994F82C10012088402449E9
:105740000968814322480160A06A18B104F1180079
:10575000FFF760FB211D1F48FFF7A2FBFFF7F0FBDF
:105760001D48006828B1FFF7A7FBFEF7D3FEFFF73F
:10577000E7FB15480068844224D117480068A8B1A7
:105780001648006808B9012000E0002028B940F25E
:10579000576213A117A0FCF717FC4FF0805019496E
:1057A0000860BFF34F8FBFF36F8F0BE009480068AD
:1057B00015490968884203D100200349086001E0C7
:1057C00000F02CF870BD00003C0100200C1B0020F4
:1057D00054010020DC1D002058010020740100202D
:1057E0002E2E5C4672656552544F535C7461736B28
:1057F000732E63004572726F723A25732C25640D07
:105800000A00000004ED00E04C010020024800689E
:10581000401C0149086070477401002010B51B4806
:10582000006818B101201A4908602DE000201849CD
:10583000086018480068B0FA80F0C0F11F0404EB5B
:105840008400154951F8200008B1012000E0002033
:1058500028B940F6F62211A115A0FCF7B5FB04EB20
:1058600084010D4A02EB810041684968416000F102
:10587000080142688A4202D1416849684160416832
:10588000C9680F4A116000BF10BD000074010020FC
:1058900060010020540100200C1B00202E2E5C46CD
:1058A00072656552544F535C7461736B732E630061
:1058B0004572726F723A25732C25640D0A00000040
:1058C0003C0100202DE9F04105460E462C462DB93D
:1058D00040F2DF120DA114A0FCF776FB06F07F402A
:1058E00008B9012000E0002028B94FF4F07207A1A8
:1058F0000DA0FCF769FBFFF7DFFA27682068B043CB
:105900002060FFF71DFB3846BDE8F0812E2E5C4677
:1059100072656552544F535C6576656E745F67724D
:105920006F7570732E6300004572726F723A257343
:105930002C25640D0A00000070B504460D460023B6
:105940002A462146024800F001FF0646304670BD57
:105950003D4E000810B51C20FEF732FF044624B16E
:1059600000202060201DFFF771FA204610BD70B5A1
:1059700001460B4600BF5025EFF3118085F31188D7
:10598000BFF34F8FBFF36F8F00BF02461C681046F6
:1059900080F3118800BF204670BD00001CB522486E
:1059A000014609780191FF210246117001460978EC
:1059B00000919DF8001001F050011C4A1170072160
:1059C0001B4A116009E01A490968491E184A11600A
:1059D0009DF800104906090E00919DF8001001F095
:1059E00080018029EFD0124909680902104A11602C
:1059F0001146098801F4E06111600B4A01991170A8
:105A00000C48006840F470000A49086008460068C5
:105A100040F070400860FFF727FB0020064908604F
:105A2000FAF7A2FB00201CBD00E400E0A801002062
:105A3000AC01002020ED00E0A401002010B500BF63
:105A4000502080F31188BFF34F8FBFF36F8F00BFDB
:105A500000F084FB18B14FF080500449086000BF8B
:105A6000002080F3118800BF10BD000004ED00E0AD
:105A70002DE9F84305460E4690460DB1012000E0A1
:105A8000002028B94FF4C4720DA112A0FCF79CFAB3
:105A90000EB9002701E005FB06F707F15400FEF7F9
:105AA0008FFE044644B104F1540943464A46314648
:105AB00028460094FEF79EFA2046BDE8F8830000D1
:105AC0002E2E5C4672656552544F535C7175657538
:105AD000652E63004572726F723A25732C25640D32
